:100000000C945D000C9485000C9485000C94850084
:100010000C9485000C9485000C9485000C9485004C
:100020000C9485000C9485000C9485000C9485003C
:100030000C9485000C9485000C9485000C9485002C
:100040000C943D040C9485000C94360D0C948500A2
:100050000C9485000C9485000C9485000C9485000C
:100060000C94400E0C948500000024272A000025E3
:10007000282B000023262904040404040404040299
:100080000202020202030303030303010204081035
:100090002040800102040810200102040810200002
:1000A0000000070002010000030406000000000039
:1000B00000000000FF00CF05F70911241FBECFEF9D
:1000C000D4E0DEBFCDBF11E0A0E0B1E0EAE7F3E2AB
:1000D00002C005900D92AA3CB107D9F713E0AAEC33
:1000E000B1E001C01D92AC31B107E1F710E0CAEBFD
:1000F000D0E004C02297FE010E94B711C43BD10793
:10010000C9F70E9411040C94BB110C94000082E505
:1001100092E0089583E592E008958BE592E00895DA
:100120008091B9019091BA0108958091BB0190919D
:10013000BC010895089508958091CA0108958091A1
:1001400045020895809146020895809147020895DE
:1001500080914802909149020895EDECF1E01192EE
:1001600082E0E534F807D9F7109245021092460272
:10017000109247021092CC011092CB011092CA014A
:1001800008958091CB019091CC01892B19F41092A4
:10019000450208958091CD01809345020895809194
:1001A000CB019091CC0103972CF08091CF018093EB
:1001B000460208951092460208958091CB019091D5
:1001C000CC0103972CF08091CF01809347020895D2
:1001D000109247020895089580914C0290914D022B
:1001E0006AE070E00E945111CB01089580914C02A9
:1001F00090914D026AE070E00E9451110895809143
:10020000B4019091B5019595879590934F02809395
:100210004E0282E592E00E94890983E592E00E9405
:10022000BE0A43E06AE08BE592E00E94F005089583
:10023000AB01BC018BE692E00E94FB080895AB0184
:10024000BC018BE692E00E9445090895BC018BE653
:1002500092E00E9458090895682F8BE692E00E9470
:1002600038080895BC018BE692E00E944808089582
:1002700080E091E00E943201089584E191E00E94C3
:1002800032010895AB01BC018BE692E00E941E0989
:100290000895BC018BE692E00E9450090895BC01CC
:1002A0008BE692E00E9409080895682F8BE692E0A1
:1002B0000E94010808958AE191E00E944F01809117
:1002C00046020E94550186E391E00E944F01809111
:1002D0004802909149020E94260108958BE692E01F
:1002E0000E94DA0508958BE692E00E94DD050895EC
:1002F0008BE692E00E94E00520E030E0882311F0D8
:1003000021E030E0C90108950F931F938091CA0145
:100310008823E9F1EDECF1E0119282E0E534F80791
:10032000D9F710924502109246021092470210929D
:10033000CC011092CB011092CA0129C00091CB01CF
:100340001091CC018BE692E00E94DD0503531E4F15
:10035000F80180832091CB013091CC01F901E35366
:10036000FE4F80818D3069F481E08093CA01232B98
:1003700019F41092450211C08091CD01809345027D
:100380000CC02F5F3F4F3093CC012093CB018BE605
:1003900092E00E94E005882389F61F910F9108954D
:1003A000CF92DF92EF92FF920F931F93DF93CF9341
:1003B00000D000D0CDB7DEB76C0127FD2FE780E875
:1003C00089831A8270E0660F771F80E0411181E017
:1003D000860F8B832C838E010F5F1F4F35E0E32E3A
:1003E000F12CEC0EFD1EF80141918F0150E060E010
:1003F00070E020E030E0C6010E9451070E151F0595
:1004000091F70F900F900F900F90CF91DF911F9168
:100410000F91FF90EF90DF90CF900895982F8091EB
:100420005002882369F481E08093500261E0892FB3
:100430000E94380564E670E080E090E00E94A80425
:1004400008958091B9019091BA010E940E028091A5
:1004500046028636A1F4209148024091B80160918D
:10046000B7018BE592E00E94D001209148024091B3
:10047000B8016091B6018BE592E00E94D0018091B5
:1004800046028237A1F420914802409151026091C6
:10049000B7018BE592E00E94D00120914802409183
:1004A00051026091B6018BE592E00E94D0018EE38B
:1004B00091E00E944F01809146020E94550186E31F
:1004C00091E00E944F0180914802909149020E9460
:1004D000260108950E94940908950E94480A0895EB
:1004E0000E94530A08950E94780A08950E94A40960
:1004F0000895CF93DF9360914E0270914F028BE786
:1005000092E00E9494096CE571E08BE792E00E9412
:10051000480A8BE792E00E94530A6AE070E080E0AC
:1005200090E00E94A80460914E0270914F0242E058
:1005300050E08BE792E00E94780ACAE4D2E08BE7B1
:1005400092E00E949E09882351F082E0CC34D807C3
:1005500031F08BE792E00E94A4098993F0CF90914B
:100560004A0280E020914B02820F911D90934D0230
:1005700080934C02DF91CF9108950E9479028EE51D
:1005800091E00E944F0180914C0290914D026AE0EF
:1005900070E00E945111CB010E9449018EE20E943D
:1005A000550180914C0290914D026AE070E00E94EA
:1005B00051110E94260108950E949E0908959C01F0
:1005C0008091CB019091CC012817390754F4C901CF
:1005D00083539E4F0E9405119093490280934802D5
:1005E0000895109249021092480208950E94480B03
:1005F0000895AF92BF92CF92DF92EF92FF920F9346
:100600001F935B016C01EE24FF2487010DC061E0A4
:1006100070E080E090E00E94A8040E94480B0894DB
:10062000E11CF11C011D111DEA14FB040C051D0544
:1006300074F31F910F91FF90EF90DF90CF90BF90D8
:10064000AF9008950E947B0A08950E948A0C089535
:1006500060E08AE00E941A0561E083E10E941A05C9
:1006600061E08BE00E941A0561E083E00E941A05B8
:1006700061E084E00E941A0561E08DE00E941A05A5
:100680001092CA011092500282E592E00E947B0A09
:1006900020E639E040E252E06BE070E083E592E072
:1006A0000E948A0C40E855E260E070E08BE592E041
:1006B0000E948A0740E855E260E070E08BE692E035
:1006C0000E94E30508950E94390708950E9441079A
:1006D00008950E946C0708950E947F0708950E9464
:1006E000A90708950E94370B08950E94340B0895BE
:1006F0000E942F0B08950E942C0B089585E891E02D
:100700000E944F01809146020E94550186E391E0CC
:100710000E944F0180914802909149020E94260157
:100720000E94480B609148027091490283E592E073
:100730000E942C0B08958091CA01882309F466C099
:1007400080914502883619F40E943D01089583374F
:1007500019F40E94380108958536A1F48091CB01E7
:100760009091CC0103972CF08091CF0180934602A9
:1007700002C01092460284E090E00E94DF020E94D4
:100780007E0308958237A1F48091CB019091CC0132
:1007900003972CF08091CF018093460202C0109203
:1007A000460284E090E00E94DF020E945B0108950F
:1007B0008437A1F48091CB019091CC0103972CF068
:1007C0008091CF018093460202C01092460284E0DD
:1007D00090E00E94DF020E9421020895893681F490
:1007E0008091CB019091CC0103972CF08091CF01A7
:1007F0008093470202C0109247020E94BD020895F2
:1008000064EA71E08BE692E00E94480808950E9435
:1008100084010E949B0308950E9407040E94480BD4
:1008200008950E94E0040E9428030E940C04FDCF5A
:100830000E94CB0A08950F931F930E94620C1F9190
:100840000F9108950E94AA0C08950E94420C0895E9
:100850000E94230A08950E94200A08950E94F80920
:1008600008950E94650A08950E948A0908950E94C9
:10087000AE0A08950E949A0A08951F920F920FB629
:100880000F9211242F938F939F93AF93BF938091D7
:10089000630290916402A0916502B091660280505B
:1008A000904CAF4FBF4F8093630290936402A0932C
:1008B0006502B093660227C0809163029091640242
:1008C000A0916502B091660280589E43A040B0405E
:1008D0008093630290936402A0936502B0936602D2
:1008E0008091670290916802A0916902B0916A02BA
:1008F0000196A11DB11D8093670290936802A09399
:100900006902B0936A028091630290916402A0919F
:100910006502B091660281589E43A040B04060F6E7
:10092000BF91AF919F918F912F910F900FBE0F901C
:100930001F9018958FB7F894209167023091680244
:100940004091690250916A028FBFB901CA010895AE
:10095000EF92FF920F931F937B018C018FB7F89456
:1009600040916702509168026091690270916A0239
:100970008FBF2FB7F8948091670290916802A09181
:100980006902B0916A022FBF841B950BA60BB70BAF
:100990008E159F05A007B10760F31F910F91FF907F
:1009A000EF900895019759F0FC01EE0FFF1FEE0F35
:1009B000FF1F32978FB7F8943197F1F78FBF0895E3
:1009C000789484B5826084BD84B5816084BD85B52A
:1009D000826085BD85B5816085BDEEE6F0E08081F1
:1009E00081608083E1E8F0E08081826080838081A3
:1009F00081608083E0E8F0E0808181608083E1EBCA
:100A0000F0E0808184608083E0EBF0E080818160B1
:100A10008083EAE7F0E08081846080838081826067
:100A20008083808181608083808180688083109250
:100A3000C1000895282F30E0C90185579F4FFC0160
:100A4000949129583F4FF9018491882381F0E82F30
:100A5000F0E0E859FF4FE491F0E0662329F480814B
:100A600090958923808308958081892B80830895C0
:100A7000482F50E0CA0181569F4FFC012491CA01C2
:100A800085579F4FFC01949149585F4FFA0134916B
:100A90003323C1F1222331F1233021F480918000EE
:100AA0008F7705C0243031F4809180008F7D809352
:100AB000800018C0213019F484B58F7704C022302B
:100AC00021F484B58F7D84BD0DC0263021F4809142
:100AD000B0008F7705C0273029F48091B0008F7D5A
:100AE0008093B000E32FF0E0E359FF4FE491F0E092
:100AF000662329F4808190958923808308958081DD
:100B0000892B80830895482F50E0CA0181569F4F5A
:100B1000FC012491CA0185579F4FFC0194914958CB
:100B20005F4FFA013491332319F420E030E035C0EF
:100B3000222331F1233021F4809180008F7705C08A
:100B4000243031F4809180008F7D8093800018C024
:100B5000213019F484B58F7704C0223021F484B594
:100B60008F7D84BD0DC0263021F48091B0008F7739
:100B700005C0273029F48091B0008F7D8093B000AC
:100B8000E32FF0E0EE58FF4FE491F0E0808120E0A9
:100B900030E0892311F021E030E0C901089581ECB3
:100BA00091E090936C0280936B020895862F0E94CF
:100BB000F50C08950E942D0D08950E940E0D0895C4
:100BC0000E94FD0C0895CB01BA010E94BC0C08954F
:100BD000FC0160834183128213821482158208957E
:100BE000FC0160834183128213821482158208956E
:100BF000AF92BF92DF92EF92FF920F931F93CF932A
:100C0000DF93EC01B62E8A819B81AC81BD81009778
:100C1000A105B10569F1EE80FF808DEF9FEFE80E31
:100C2000F91E60E089810E943805C7010E94D20444
:100C3000DD24D39408E010E0AB2CBB248D2D90E094
:100C40008A219B21892B11F061E001C060E089813C
:100C50000E943805C7010E94D204DD0C01501040EB
:100C600069F761E089810E943805C7010E94D204BA
:100C7000DF91CF911F910F91FF90EF90DF90BF9088
:100C8000AF9008950E94F80508952F923F924F92D9
:100C90005F926F927F928F929F92AF92BF92CF920C
:100CA000DF92EF92FF920F931F93DF93CF93CDB715
:100CB000DEB7A0970FB6F894DEBF0FBECDBF1C0104
:100CC0006A017B01411551056105710521F460E35D
:100CD0000E94F8054FC0882499245401422E5524BF
:100CE0006624772401E010E00C0F1D1F080D191D6C
:100CF000C701B601A30192010E946411F80160834B
:100D00000894811C911CA11CB11CC701B601A30150
:100D100092010E946411C901DA016C017D01C114C4
:100D2000D104E104F104F1F681E0E82EF12CEC0E9F
:100D3000FD1EE80CF91C3E010894611C711CD501D4
:100D4000C4010197A109B1096C01C818D9080FC0E5
:100D5000F601EE0DFF1D60816A3010F4605D01C088
:100D6000695CC1010E94F8050894E108F1086E145D
:100D70007F0471F7A0960FB6F894DEBF0FBECDBF0B
:100D8000CF91DF911F910F91FF90EF90DF90CF9067
:100D9000BF90AF909F908F907F906F905F904F909B
:100DA0003F902F9008952AE00E9445060895AB01D8
:100DB00060E070E00E94D30608950F931F938C01AA
:100DC0006DE00E94F8056AE0C8010E94F8051F91D5
:100DD0000F9108950F931F938C010E94D306C801B1
:100DE0000E94DD061F910F9108950F931F938C01B0
:100DF0000E94F805C8010E94DD061F910F91089519
:100E00000F931F938C010E94F805C8010E94DD0614
:100E10001F910F910895EF92FF920F931F93CF931D
:100E2000DF93EC017A018B0177FF0BC06DE20E942A
:100E3000F80510950095F094E094E11CF11C011D5B
:100E4000111D2AE0B801A701CE010E944506DF91DD
:100E5000CF911F910F91FF90EF9008950F931F93E3
:100E60008C010E940B07C8010E94DD061F910F91A3
:100E70000895AB01662757FD6095762F0E940B07FA
:100E800008950F931F938C01AB01662757FD609562
:100E9000762F0E940B07C8010E94DD061F910F915B
:100EA00008952115310521F4642F0E94F805089555
:100EB0002A30310519F40E940B0708950E94450657
:100EC00008950F931F938C010E945107C8010E943F
:100ED000DD061F910F9108950F931F93CF93DF931A
:100EE0008C01EB0104C02196C8010E94F8056881BD
:100EF0006623C9F7DF91CF911F910F9108950F934A
:100F00001F938C010E946C07C8010E94DD061F918F
:100F10000F9108950F931F938C019A01AB01FC016F
:100F2000228333834483558360E472E48FE090E04E
:100F30000E948611F8013783268361E081810E9437
:100F40003805F801868197810E94D2041F910F9184
:100F50000895CF92DF92EF92FF920F931F93CF935A
:100F6000DF937C01FC01C681D781F70180810E945B
:100F70008305892BD1F7F70180810E948305892B96
:100F800019F00FEF1FEF2BC09DEFC92E9FEFD92E49
:100F9000CC0EDD1EC60162E070E00E945111CB0153
:100FA00003970E94D20400E010E0C0E0D0E0C60148
:100FB0000E94D204F70180810E9483050C2E02C09A
:100FC000880F991F0A94E2F7082B192B2196C83035
:100FD000D10569F7F701868197810E94D204C80183
:100FE000DF91CF911F910F91FF90EF90DF90CF9005
:100FF0000895DC01ED91FC910190F081E02D0995BF
:101000000895DC01ED91FC910190F081E02D0995AE
:1010100008950F931F93CF93DF938C01EB0109C0C9
:101020002196D801ED91FC910190F081E02DC8014D
:10103000099568816623A1F7DF91CF911F910F91E8
:1010400008950F931F938C01DC01ED91FC910190A9
:10105000F081E02D6DE00995D801ED91FC910190B2
:10106000F081E02D6AE0C80109951F910F91089564
:101070000F931F938C01DC01ED91FC910190F081A5
:10108000E02D0995C8010E9421081F910F91089534
:101090000F931F938C010E940908C8010E94210828
:1010A0001F910F9108950F931F938C01DC01ED9117
:1010B000FC910190F081E02D0995C8010E94210862
:1010C0001F910F9108952F923F924F925F926F92CE
:1010D0007F928F929F92AF92BF92CF92DF92EF92C8
:1010E000FF920F931F93DF93CF93CDB7DEB7A097F7
:1010F0000FB6F894DEBF0FBECDBF1C016A017B01A5
:10110000411551056105710549F4DC01ED91FC9132
:101110000190F081E02D60E3099554C08824992462
:101120005401422E55246624772401E010E00C0F70
:101130001D1F080D191DC701B601A30192010E94D0
:101140006411F80160830894811C911CA11CB11CDE
:10115000C701B601A30192010E946411C901DA011D
:101160006C017D01C114D104E104F104F1F681E0C8
:10117000E82EF12CEC0EFD1EE80CF91C3E01089443
:10118000611C711CD501C4010197A109B1096C0151
:10119000C818D90814C0F601EE0DFF1D60816A3031
:1011A00010F4605D01C0695CD101ED91FC9101908A
:1011B000F081E02DC10109950894E108F1086E1451
:1011C0007F0449F7A0960FB6F894DEBF0FBECDBFDF
:1011D000CF91DF911F910F91FF90EF90DF90CF9013
:1011E000BF90AF909F908F907F906F905F904F9047
:1011F0003F902F9008952AE00E94630808950F936E
:101200001F938C010E94FB08C8010E9421081F91B6
:101210000F910895AB0160E070E00E94FB08089513
:101220000F931F938C01AB0160E070E00E94FB08FC
:10123000C8010E9421081F910F910895EF92FF921B
:101240000F931F93CF93DF93EC017A018B0177FF0C
:101250000FC0E881F9810190F081E02D6DE20995E0
:1012600010950095F094E094E11CF11C011D111DF6
:101270002AE0B801A701CE010E946308DF91CF9157
:101280001F910F91FF90EF9008950F931F938C0182
:101290000E941E09C8010E9421081F910F91089504
:1012A000AB01662757FD6095762F0E941E090895B1
:1012B0000F931F938C01AB01662757FD6095762F26
:1012C0000E941E09C8010E9421081F910F910895D4
:1012D000DC012115310541F4ED91FC910190F08183
:1012E000E02D642F099508952A30310519F40E94E4
:1012F0001E0908950E94630808950F931F938C019F
:101300000E946809C8010E9421081F910F91089549
:101310000895089581E0809376026093710210929F
:10132000740210927502089581E0809376026093B2
:1013300071021092740210927502089580917002E9
:1013400090916F02891B089590916F0280917002B5
:10135000981710F080E00895E0916D02F0916E0210
:10136000E90FF11D80819F5F90936F0208959C01AA
:101370008091790290917A02892B11F190916F02FC
:10138000809170029817E0F090E00BC0E0916D0240
:10139000F0916E02EA0FFB1FA20FB31F8C918083A6
:1013A0009F5FA92FB0E0A617B70784F310926F02D2
:1013B00060937002E0917902F0917A02CB01099575
:1013C0000895E0917702F0917802309729F0109219
:1013D0007402109275020995089570937A026093D1
:1013E00079020895709378026093770208950895C2
:1013F000DF93CF930F92CDB7DEB7698380917602EA
:101400008823A9F0809175028032B0F48091740233
:10141000E0917202F0917302E80FF11D60838091F8
:1014200074028F5F809374028093750205C061E03F
:10143000CE0101960E94010E0F90CF91DF91089589
:101440000E94F8090895EF92FF920F931F93CF9394
:10145000DF937C01262F042F80917602882361F090
:10146000372FE90110E005C06991C7010E94F80912
:101470001F5F1017C8F305C0642F822F972F0E949B
:10148000010EDF91CF911F910F91FF90EF90089582
:10149000FB0101900020E9F73197E61BF70B4E2F77
:1014A0000E94230A0895609172027091730221E0F4
:1014B00040917502809171020E94BC0D10927402DD
:1014C000109275021092760208951F93862F142FA2
:1014D000413208F010E260916D0270916E02412F6E
:1014E0000E94860D10926F02109370021F91089552
:1014F0000E94650A089561E070E080E290E00E9439
:10150000E70F80936D0290936E0210926F0210921B
:10151000700261E070E080E290E00E94E70F80934B
:1015200072029093730210927402109275020E94DC
:10153000B60F08950F931F938C01862F0E94820D82
:1015400081EE99E00E94230E87EB99E00E941E0E27
:10155000C8010E947B0A1F910F9108950E949A0A68
:101560000895FC0110828FEF81831382128282E240
:10157000848386E98583178216820895FC01108290
:101580008FEF81831382128282E2848386E98583CE
:10159000178216820895AC01E0917C02F0917D02E1
:1015A000ACE7B2E00FC026813781E417F50731F4CC
:1015B0002C9311963C93178216820895DF0116969C
:1015C000C901FC01309779F70895EF92FF920F93CC
:1015D0001F93CF93DF93EC019B0177FF03C020E0C3
:1015E00030E005C0653B710514F024EB30E0298341
:1015F000EC806D8170E06E197109882777FD809508
:10160000982F982F872F762F662730E040E050E004
:101610000E94321124EB30E040E050E00E9486113D
:10162000FF2400E010E0102F0F2DFE2CEE24E20E20
:10163000F31E041F151FC801B70120E430E040E08D
:1016400050E00E9486113B832A83DF91CF911F9146
:101650000F91FF90EF9008950E94E50A0895665A51
:101660007F4F0E94E50A0895FC0181810895E09171
:101670007C02F0917D0208C0E817F90711F481E0BF
:1016800008950680F781E02D3097B1F780E0089546
:101690005F926F927F928F929F92AF92BF92CF9202
:1016A000DF92EF92FF920F931F93DF93CF93CDB70B
:1016B000DEB76DB67EB6ADB65EB60E949A042091D6
:1016C0007E0230917F024091800250918102621728
:1016D00073078407950750F02C5E3F4F4F4F5F4FC5
:1016E000621773078407950708F4AFC060937E0202
:1016F00070937F028093800290938102E0917C023C
:10170000F0917D02BB2408C082819381892B09F06E
:10171000B3940680F781E02D3097B1F7BB2009F430
:1017200094C08B2D90E0880F991F2DB73EB7281BD2
:10173000390B0FB6F8943EBF0FBE2DBFCDB6DEB647
:101740000894C11CD11CA0917C02B0917D0220E0C4
:1017500013C012968D919C911397892B49F0E22F1B
:10176000F0E0EE0FFF1FEC0DFD1DB183A0832F5F96
:1017700016960D90BC91A02D109759F72CC0812F73
:1017800090E07C01EE0CFF1CEC0CFD1CD7016D9170
:101790007C91FC013197EE0FFF1FEC0DFD1D408188
:1017A0005181DB0112962D913C911397DA0112962B
:1017B0008D919C9113972817390730F4D7014D93D9
:1017C0005C937183608301E01F5F1B15C0F20023EF
:1017D00011F410E011C011E000E0F7CFE12FF0E0CC
:1017E000EE0FFF1FEC0DFD1D0190F081E02D61E07B
:1017F00080810E9438051F5F1B1580F3F6B4EE242C
:1018000000E010E08F2C99241EC0EE2DF0E0EE0FCA
:10181000FF1FEC0DFD1D0190F081E02D2281338131
:10182000280D391D86B58F1510F400501F4FF82E66
:10183000C8018F0D911D28173907A0F760E080813E
:101840000E943805E394EB1400F38A2D952D9C013A
:101850000FB6F8943EBF0FBE2DBF0FB6F8947EBEF4
:101860000FBE6DBECF91DF911F910F91FF90EF9052
:10187000DF90CF90BF90AF909F908F907F906F90B0
:101880005F9008950F931F938C01FC0160838FEF8D
:1018900081831382128280917C0290917D029783D2
:1018A000868310937D0200937C0260E080810E9419
:1018B000380561E0F80180810E941A0581E01F91DE
:1018C0000F910895AF92BF92CF92DF92EF92FF9265
:1018D0000F931F936C015A0179010E94420C94E00E
:1018E000F694E7949A95E1F7F601E48284E0169580
:1018F00007958A95E1F70583B501C6010E94E50ABF
:1019000081E01F910F91FF90EF90DF90CF90BF90FB
:10191000AF900895CF92DF92EF92FF920F931F93B3
:101920006C018A0179010E94420C34E016950795FA
:101930003A95E1F7F601048324E0F694E7942A95BA
:10194000E1F7E58281E01F910F91FF90EF90DF902A
:10195000CF900895EF92FF920F931F938C017A011D
:101960000E94420CB701C8010E94E50A81E01F9164
:101970000F91FF90EF900895EF92FF920F931F93B6
:101980007B018C0122E030E040E050E00E948611B3
:10199000205C3D4B404F5F4FCA01B901A801970140
:1019A0000E948611C901DA010197A109B109292F05
:1019B0003A2F4B2F552747FD5A950196A11DB11D72
:1019C0002093C50081508093C400E1ECF0E0808159
:1019D000806180838081886080838081806880834B
:1019E0001F910F91FF90EF900895982F8091C00064
:1019F00085FFFCCF9093C60008958091820290915C
:101A0000830280589F4F2091840230918502821B6F
:101A1000930B60E870E00E94511108954091840298
:101A200050918502809182029091830284179507DC
:101A300019F42FEF3FEF0FC0FA01E856FD4F208158
:101A4000CA01019660E870E00E94511190938502EE
:101A50008093840230E0C9010895809184029091BE
:101A60008502909383028093820208951F920F92C1
:101A70000FB60F9211242F933F934F935F936F9361
:101A80007F938F939F93AF93BF93EF93FF93409177
:101A9000C600E0918202F0918302CF01019660E8D6
:101AA00070E00E9451119C01809184029091850206
:101AB0002817390739F0E856FD4F408330938302E9
:101AC00020938202FF91EF91BF91AF919F918F91EF
:101AD0007F916F915F914F913F912F910F900FBE2A
:101AE0000F901F90189557FB97F90895682F660F70
:101AF000692F661F20E030E06F3F11F021E030E0F9
:101B0000C9010895880F8093BA000895982F413233
:101B100010F040E02FC0809186028823E1F781E039
:101B2000809386028FEF8093970210928E024093EB
:101B30008F02990F91609093870285EE8093BC008D
:101B4000809186028130E1F380918E02841710F437
:101B500040918E02A0918C02B0918D0220E030E085
:101B600007C0FB01E20FF31F8D9180832F5F3F4F72
:101B70002417B8F3842F08951F93582F122F413242
:101B800010F081E03CC0809186028823E1F782E07A
:101B9000809386028FEF8093970210928E0240937B
:101BA0008F02A0918C02B0918D02FB0102C0819145
:101BB0008D938E2F861B8417D0F3852F90E0880F8E
:101BC000991F8093870285EE8093BC00112321F03A
:101BD000809186028230E1F3809197028F3F11F469
:101BE00080E00DC080919702803211F482E007C03E
:101BF00080919702803311F084E001C083E01F914F
:101C00000895482F613210F081E008958091860296
:101C1000843011F082E0089560939302A0919002C5
:101C2000B0919102842F9C01F90102C081918D93A2
:101C30008E2F841B8617D0F380E0089590938B023B
:101C400080938A0208959093890280938802089570
:101C5000882311F085EC01C085E88093BC000895CD
:101C600085ED8093BC008091BC0084FDFCCF109278
:101C70008602089585EC8093BC0010928602089538
:101C80001F920F920FB60F9211246F937F938F9331
:101C90009F93EF93FF938091B90090E0887F9070BD
:101CA0008036910509F4E2C081369105CCF5883281
:101CB000910509F47BC089329105B4F48031910516
:101CC00009F46FC0813191053CF4009709F438C1E3
:101CD000089709F040C165C08831910509F466C0D4
:101CE000809709F038C17FC08034910509F4A3C002
:101CF0008134910544F48033910509F47FC0C8977D
:101D000009F029C186C08035910509F486C088355F
:101D1000910509F495C08834910509F01CC19EC055
:101D20008839910509F404C189399105ECF48837A3
:101D3000910509F49BC0893791054CF488369105CB
:101D400009F494C08037910509F005C18FC0883827
:101D5000910509F4EDC08039910509F48DC08038F2
:101D6000910509F0F8C088C0803B910509F4B2C024
:101D7000813B91054CF4803A910509F491C0883A71
:101D8000910509F0E8C0A6C0803C910509F4D4C0D3
:101D9000883C910509F4D0C0883B910509F0DBC06F
:101DA000B1C0809187028093BB00C0C090918E0229
:101DB00080918F02981778F490918E02E0918C02B6
:101DC000F0918D02E90FF11D80818093BB009F5F30
:101DD00090938E02ABC085ED8093BC008091BC00D7
:101DE00084FDFCCFB6C080E28093970285ED80939E
:101DF000BC008091BC0084FDFCCFABC080E380932D
:101E0000970285ED8093BC008091BC0084FDFCCFDF
:101E1000A0C088E3809397028FC080918E0290913A
:101E2000BB00E0918C02F0918D02E80FF11D9083D0
:101E30008F5F80938E0290918E0280918F0274C08A
:101E400080918E029091BB00E0918C02F0918D0206
:101E5000E80FF11D90838F5F80938E0285ED809354
:101E6000BC008091BC0084FDFCCF73C083E08093F4
:101E70008602109296025AC080919602803208F033
:101E800057C0809196029091BB00E0919402F0912E
:101E90009502E80FF11D90838F5F8093960246C0F4
:101EA00080919602803248F480919602E0919402EB
:101EB000F0919502E80FF11D108260919602E09179
:101EC0008A02F0918B0270E08091940290919502C9
:101ED000099532C084E0809386021092920210929B
:101EE0009302E0918802F091890209958091930212
:101EF000882341F481E080939302E0919002F09175
:101F00009102108290919202E0919002F0919102E0
:101F1000E90FF11D80818093BB009F5F9093920237
:101F20009091920280919302981710F485EC01C071
:101F300085E88093BC000FC085EC8093BC0009C08D
:101F40001092970285ED8093BC008091BC0084FDC7
:101F5000FCCF10928602FF91EF919F918F917F911C
:101F60006F910F900FBE0F901F90189510928602E0
:101F7000449A459AE9EBF0E080818E7F80838081EE
:101F80008D7F808388E48093B80085E48093BC00D3
:101F900061E070E080E290E00E94E70F80938C02A5
:101FA00090938D0261E070E080E290E00E94E70F84
:101FB000809390029093910261E070E080E290E063
:101FC0000E94E70F809394029093950208950F93D7
:101FD0001F93CF93DF93689F8001699F100D789FB7
:101FE000100D1124C8010E940310EC01009729F084
:101FF000A80160E070E00E942311CE01DF91CF9133
:102000001F910F910895CF93DF93BC01823091050A
:1020100010F462E070E0A0911A03B0911B03ED018F
:10202000E0E0F0E040E050E021C08881998186172F
:10203000970769F48A819B81309719F09383828393
:1020400004C090931B0380931A03FE0134C06817E9
:10205000790738F44115510519F08417950708F4EC
:10206000AC01FE018A819B819C01E9012097E9F680
:1020700041155105A9F1CA01861B970B049708F475
:10208000BA01E0E0F0E02AC08D919C91119784178D
:102090009507F9F46417750781F412968D919C9158
:1020A0001397309719F09383828304C090931B0396
:1020B00080931A03FD0132964CC0CA01861B970B10
:1020C000FD01E80FF91F6193719302978D939C9323
:1020D00040C0FD01828193819C01D9011097A1F636
:1020E0008091180390911903892B41F48091C501C7
:1020F0009091C60190931903809318034091C701F2
:102100005091C8014115510541F44DB75EB780911A
:10211000C3019091C401481B590B209118033091C1
:102120001903CA01821B930B8617970780F0AB0136
:102130004E5F5F4F8417950750F0420F531F509327
:10214000190340931803F9016193719302C0E0E011
:10215000F0E0CF01DF91CF910895CF93DF93009707
:1021600009F450C0EC0122971B821A82A0911A0335
:10217000B0911B03109709F140E050E0AC17BD0788
:1021800008F1BB83AA83FE0121913191E20FF31F75
:10219000AE17BF0779F48D919C911197280F391FC5
:1021A0002E5F3F4F3983288312968D919C91139710
:1021B0009B838A834115510571F4D0931B03C0930F
:1021C0001A0320C012968D919C911397AD01009730
:1021D00011F0DC01D3CFFA01D383C2832191319175
:1021E000E20FF31FCE17DF0769F488819981280F6A
:1021F000391F2E5F3F4FFA01318320838A819B81F3
:1022000093838283DF91CF910895FC0188279927DA
:10221000E89421912032E9F3293010F02E30C8F3F0
:102220002B3241F02D3239F4689404C00E942A11F7
:10223000820F911D219120532A30C0F31EF49095F6
:1022400081959F4F0895DC0101C06D93415050402E
:10225000E0F708957AE0979F902D879F802D910D4C
:1022600011240895629FD001739FF001829FE00DB9
:10227000F11D649FE00DF11D929FF00D839FF00D05
:10228000749FF00D659FF00D9927729FB00DE11DB1
:10229000F91F639FB00DE11DF91FBD01CF0111248E
:1022A000089597FB092E07260AD077FD04D049D060
:1022B00006D000201AF4709561957F4F0895F6F7C7
:1022C000909581959F4F0895A1E21A2EAA1BBB1BE2
:1022D000FD010DC0AA1FBB1FEE1FFF1FA217B307F2
:1022E000E407F50720F0A21BB30BE40BF50B661F08
:1022F000771F881F991F1A9469F7609570958095CC
:1023000090959B01AC01BD01CF01089597FB092E6B
:1023100005260ED057FD04D0D7DF0AD0001C38F4B4
:1023200050954095309521953F4F4F4F5F4F089501
:10233000F6F790958095709561957F4F8F4F9F4FE1
:102340000895AA1BBB1B51E107C0AA1FBB1FA617FC
:10235000B70710F0A61BB70B881F991F5A95A9F74E
:1023600080959095BC01CD010895EE0FFF1F05905B
:0A237000F491E02D0994F894FFCFDA
:10237A005374617475733A206F7065726174696F12
:10238A006E616C00526F67657200527564646572A3
:10239A0020636F6D6D616E64202D206469726563C0
:1023AA0074696F6E3A002076616C75653A005468FC
:1023BA00726F74746C6520636F6D6D616E64202D2D
:1023CA0020646972656374696F6E3A004100496EF0
:1023DA00737472756D656E747320636F6D6D616E63
:1023EA0064202D20636F6D7061737320686561646A
:1023FA00696E673A00456C657661746F7273206323
:10240A006F6D6D616E64202D2064697265637469F5
:10241A006F6E3A00496E76616C696420636F6D6D08
:10242A00616E6400420003020104000D0000000016
:0A243A0000D60520001C030000007E
:00000001FF
